{
  "_format": "hh-sol-artifact-1",
  "contractName": "Escrow",
  "sourceName": "contracts/Escrow.sol",
  "abi": [
    {
      "inputs": [
        {
          "internalType": "address",
          "name": "_buyer",
          "type": "address"
        },
        {
          "internalType": "address",
          "name": "_seller",
          "type": "address"
        },
        {
          "internalType": "uint256",
          "name": "_money",
          "type": "uint256"
        }
      ],
      "stateMutability": "nonpayable",
      "type": "constructor"
    },
    {
      "anonymous": false,
      "inputs": [
        {
          "indexed": false,
          "internalType": "enum Escrow.State",
          "name": "_state",
          "type": "uint8"
        }
      ],
      "name": "ChangeState",
      "type": "event"
    },
    {
      "anonymous": false,
      "inputs": [
        {
          "indexed": true,
          "internalType": "address",
          "name": "_from",
          "type": "address"
        },
        {
          "indexed": true,
          "internalType": "address",
          "name": "_to",
          "type": "address"
        },
        {
          "indexed": false,
          "internalType": "uint256",
          "name": "value",
          "type": "uint256"
        }
      ],
      "name": "Transfer",
      "type": "event"
    },
    {
      "inputs": [],
      "name": "confirmDelivery",
      "outputs": [],
      "stateMutability": "nonpayable",
      "type": "function"
    },
    {
      "inputs": [],
      "name": "getCurrentState",
      "outputs": [
        {
          "internalType": "uint8",
          "name": "",
          "type": "uint8"
        }
      ],
      "stateMutability": "view",
      "type": "function"
    },
    {
      "stateMutability": "payable",
      "type": "receive"
    }
  ],
  "bytecode": "0x60806040523480156200001157600080fd5b5060405162000c3238038062000c32833981810160405281019062000037919062000190565b826000806101000a81548173ffffffffffffffffffffffffffffffffffffffff021916908373ffffffffffffffffffffffffffffffffffffffff16021790555081600160006101000a81548173ffffffffffffffffffffffffffffffffffffffff021916908373ffffffffffffffffffffffffffffffffffffffff160217905550806002819055506000600360006101000a81548160ff021916908360028111156200010c577f4e487b7100000000000000000000000000000000000000000000000000000000600052602160045260246000fd5b02179055507f402ee26d4c255fcb07b0b7b5b93b77377832260977c25be44f3c8feffd2df70e600360009054906101000a900460ff16604051620001519190620001f7565b60405180910390a1505050620002f5565b6000815190506200017381620002c1565b92915050565b6000815190506200018a81620002db565b92915050565b600080600060608486031215620001a657600080fd5b6000620001b68682870162000162565b9350506020620001c98682870162000162565b9250506040620001dc8682870162000179565b9150509250925092565b620001f18162000267565b82525050565b60006020820190506200020e6000830184620001e6565b92915050565b600062000221826200023d565b9050919050565b60008190506200023882620002aa565b919050565b600073ffffffffffffffffffffffffffffffffffffffff82169050919050565b6000819050919050565b6000620002748262000228565b9050919050565b7f4e487b7100000000000000000000000000000000000000000000000000000000600052602160045260246000fd5b60038110620002be57620002bd6200027b565b5b50565b620002cc8162000214565b8114620002d857600080fd5b50565b620002e6816200025d565b8114620002f257600080fd5b50565b61092d80620003056000396000f3fe60806040526004361061002d5760003560e01c8063378aa701146102b55780635e10177b146102e0576102b0565b366102b05760008054906101000a900473ffffffffffffffffffffffffffffffffffffffff1673ffffffffffffffffffffffffffffffffffffffff163373ffffffffffffffffffffffffffffffffffffffff161461008a57600080fd5b60025434146100ce576040517f08c379a00000000000000000000000000000000000000000000000000000000081526004016100c590610811565b60405180910390fd5b60006002811115610108577f4e487b7100000000000000000000000000000000000000000000000000000000600052602160045260246000fd5b600360009054906101000a900460ff166002811115610150577f4e487b7100000000000000000000000000000000000000000000000000000000600052602160045260246000fd5b14610190576040517f08c379a0000000000000000000000000000000000000000000000000000000008152600401610187906107d1565b60405180910390fd5b6001600360006101000a81548160ff021916908360028111156101dc577f4e487b7100000000000000000000000000000000000000000000000000000000600052602160045260246000fd5b02179055503073ffffffffffffffffffffffffffffffffffffffff1660008054906101000a900473ffffffffffffffffffffffffffffffffffffffff1673ffffffffffffffffffffffffffffffffffffffff167fddf252ad1be2c89b69c2b068fc378daa952ba7f163c4a11628f55a4df523b3ef6002546040516102609190610831565b60405180910390a37f402ee26d4c255fcb07b0b7b5b93b77377832260977c25be44f3c8feffd2df70e600360009054906101000a900460ff166040516102a691906107b6565b60405180910390a1005b600080fd5b3480156102c157600080fd5b506102ca6102f7565b6040516102d7919061084c565b60405180910390f35b3480156102ec57600080fd5b506102f5610422565b005b6000806002811115610332577f4e487b7100000000000000000000000000000000000000000000000000000000600052602160045260246000fd5b600360009054906101000a900460ff16600281111561037a577f4e487b7100000000000000000000000000000000000000000000000000000000600052602160045260246000fd5b1415610389576000905061041f565b600160028111156103c3577f4e487b7100000000000000000000000000000000000000000000000000000000600052602160045260246000fd5b600360009054906101000a900460ff16600281111561040b577f4e487b7100000000000000000000000000000000000000000000000000000000600052602160045260246000fd5b141561041a576001905061041f565b600290505b90565b60008054906101000a900473ffffffffffffffffffffffffffffffffffffffff1673ffffffffffffffffffffffffffffffffffffffff163373ffffffffffffffffffffffffffffffffffffffff161461047a57600080fd5b600160028111156104b4577f4e487b7100000000000000000000000000000000000000000000000000000000600052602160045260246000fd5b600360009054906101000a900460ff1660028111156104fc577f4e487b7100000000000000000000000000000000000000000000000000000000600052602160045260246000fd5b1461053c576040517f08c379a0000000000000000000000000000000000000000000000000000000008152600401610533906107f1565b60405180910390fd5b600160009054906101000a900473ffffffffffffffffffffffffffffffffffffffff1673ffffffffffffffffffffffffffffffffffffffff166108fc6002549081150290604051600060405180830381858888f193505050501580156105a6573d6000803e3d6000fd5b506002600360006101000a81548160ff021916908360028111156105f3577f4e487b7100000000000000000000000000000000000000000000000000000000600052602160045260246000fd5b0217905550600160009054906101000a900473ffffffffffffffffffffffffffffffffffffffff1673ffffffffffffffffffffffffffffffffffffffff163073ffffffffffffffffffffffffffffffffffffffff167fddf252ad1be2c89b69c2b068fc378daa952ba7f163c4a11628f55a4df523b3ef6002546040516106799190610831565b60405180910390a37f402ee26d4c255fcb07b0b7b5b93b77377832260977c25be44f3c8feffd2df70e600360009054906101000a900460ff166040516106bf91906107b6565b60405180910390a1565b6106d2816108a2565b82525050565b60006106e5601e83610867565b91507f42757965722063616e2073656e64206d6f6e6579206f6e6c79206f6e636500006000830152602082019050919050565b6000610725601f83610867565b91507f4275796572206e6565647320746f2073656e64206d6f6e6579206669727374006000830152602082019050919050565b6000610765601e83610867565b91507f416d6f756e74206f66206d6f6e6579206973206e6f7420636f727265637400006000830152602082019050919050565b6107a18161088b565b82525050565b6107b081610895565b82525050565b60006020820190506107cb60008301846106c9565b92915050565b600060208201905081810360008301526107ea816106d8565b9050919050565b6000602082019050818103600083015261080a81610718565b9050919050565b6000602082019050818103600083015261082a81610758565b9050919050565b60006020820190506108466000830184610798565b92915050565b600060208201905061086160008301846107a7565b92915050565b600082825260208201905092915050565b6000819050610886826108e3565b919050565b6000819050919050565b600060ff82169050919050565b60006108ad82610878565b9050919050565b7f4e487b7100000000000000000000000000000000000000000000000000000000600052602160045260246000fd5b600381106108f4576108f36108b4565b5b5056fea26469706673582212209e962e61d4d4d4d01e651e2296d57be027504516ad5e6620af0e6c46934140a964736f6c63430008000033",
  "linkReferences": {},
  "deployedLinkReferences": {}
}